:100000000000002025220000DD260000F52600006B
:10001000092700001D2700003127000045270000A8
:10002000592700006D270000812700009527000058
:10003000A9270000BD270000D1270000E527000008
:10004000F92700000D2800002128000035280000B5
:10005000492800005D280000712800008528000064
:1000600099280000AD280000C1280000D528000014
:10007000E9280000FD2800001129000025290000C2
:10008000CD240000CD240000392900004D290000B6
:100090006129000075290000892900009D290000C0
:1000A000B1290000C5290000D9290000ED29000070
:1000B000012A0000152A0000292A00003D2A00001C
:1000C000512A0000652A0000792A00008D2A0000CC
:1000D000A12A0000B52A0000C92A0000DD2A00007C
:1000E000F12A0000052B0000192B00002D2B000029
:0800F000412B0000552B00001C
:10040000FFFFFFFFFFFFFFFFFFFFFFFF7EFFFFFF7D
:1004100081F0004102E000BF83F0004330B54FEAB5
:1004200041044FEA430594EA050F08BF90EA020F22
:100430001FBF54EA000C55EA020C7FEA645C7FEAB5
:10044000655C00F0E2804FEA5454D4EB5555B8BFD8
:100450006D420CDD2C4480EA020281EA030382EA49
:10046000000083EA010180EA020281EA0303362DDB
:1004700088BF30BD11F0004F4FEA01314FF4801CAE
:100480004CEA113102D0404261EB410113F0004FC0
:100490004FEA03334CEA133302D0524263EB430377
:1004A00094EA050F00F0A780A4F10104D5F1200E15
:1004B0000DDB02FA0EFC22FA05F2801841F1000170
:1004C00003FA0EF2801843FA05F359410EE0A5F144
:1004D00020050EF1200E012A03FA0EFC28BF4CF075
:1004E000020C43FA05F3C01851EBE37101F000452B
:1004F00007D54FF0000EDCF1000C7EEB00006EEB38
:100500000101B1F5801F1BD3B1F5001F0CD34908C1
:100510005FEA30004FEA3C0C04F101044FEA445218
:1005200012F5800F80F09A80BCF1004F08BF5FEA9F
:10053000500C50F1000041EB045141EA050130BD7F
:100540005FEA4C0C404141EB010111F4801FA4F122
:100550000104E9D191F0000F04BF01460020B1FA77
:1005600081F308BF2033A3F10B03B3F120020CDAAF
:100570000C3208DD02F1140CC2F10C0201FA0CF08D
:1005800021FA02F10CE002F11402D8BFC2F1200CF2
:1005900001FA02F120FA0CFCDCBF41EA0C019040A8
:1005A000E41AA2BF01EB0451294330BD6FEA0404F1
:1005B0001F3C1CDA0C340EDC04F11404C4F12002DC
:1005C00020FA04F001FA02F340EA030021FA04F3EE
:1005D00045EA030130BDC4F10C04C4F1200220FA45
:1005E00002F001FA04F340EA0300294630BD21FA83
:1005F00004F0294630BD94F0000F83F4801306BF49
:1006000081F480110134013D4EE77FEA645C18BF3C
:100610007FEA655C29D094EA050F08BF90EA020FD3
:1006200005D054EA000C04BF1946104630BD91EACB
:10063000030F1EBF0021002030BD5FEA545C05D1CE
:100640004000494128BF41F0004130BD14F580040D
:100650003CBF01F5801130BD01F0004545F0FE4181
:1006600041F470014FF0000030BD7FEA645C1ABFB6
:10067000194610467FEA655C1CBF0B46024650EAED
:10068000013406BF52EA033591EA030F41F4002119
:1006900030BD00BF90F0000F04BF0021704730B59F
:1006A0004FF4806404F132044FF000054FF0000174
:1006B00050E700BF90F0000F04BF0021704730B535
:1006C0004FF4806404F1320410F0004548BF40420A
:1006D0004FF000013EE700BF42004FEAE2014FEA5F
:1006E00031014FEA02701FBF12F07F4393F07F4F3A
:1006F00081F06051704792F0000F14BF93F07F4F6C
:10070000704730B54FF4607401F0004521F00041AE
:1007100020E700BF50EA010208BF704730B54FF034
:1007200000050AE050EA010208BF704730B511F039
:10073000004502D5404261EB41014FF4806404F171
:1007400032045FEA915C3FF4DCAE4FF003025FEAF3
:10075000DC0C18BF03325FEADC0C18BF033202EB7B
:10076000DC02C2F1200300FA03FC20FA02F001FAD5
:1007700003FE40EA0E0021FA02F11444C1E600BF74
:1007800070B54FF0FF0C4CF4E06C1CEA11541DBF27
:100790001CEA135594EA0C0F95EA0C0F00F0DEF8F2
:1007A0002C4481EA030621EA4C5123EA4C5350EAD7
:1007B000013518BF52EA033541F4801143F4801328
:1007C00038D0A0FB02CE4FF00005E1FB02E506F0B9
:1007D0000042E0FB03E54FF00006E1FB03569CF00E
:1007E000000F18BF4EF0010EA4F1FF04B6F5007F14
:1007F00064F5407404D25FEA4E0E6D4146EB060686
:1008000042EAC62141EA55514FEAC52040EA5E500E
:100810004FEACE2EB4F1FD0C88BFBCF5E06F1ED8B8
:10082000BEF1004F08BF5FEA500E50F1000041EBEF
:10083000045170BD06F0004646EA010140EA02009C
:1008400081EA0301B4EB5C04C2BFD4EB0C0541EABE
:10085000045170BD41F480114FF0000E013C00F3D3
:10086000AB8014F1360FDEBF002001F0004170BDF7
:10087000C4F10004203C35DA0C341BDC04F1140410
:10088000C4F1200500FA05F320FA04F001FA05F29C
:1008900040EA020001F0004221F0004110EBD37069
:1008A00021FA04F642EB06015EEA430E08BF20EA95
:1008B000D37070BDC4F10C04C4F1200500FA04F338
:1008C00020FA05F001FA04F240EA020001F00041CA
:1008D00010EBD37041F100015EEA430E08BF20EA3D
:1008E000D37070BDC4F1200500FA05F24EEA020E85
:1008F00020FA04F301FA05F243EA020321FA04F0B4
:1009000001F0004121FA04F220EA020000EBD3706A
:100910005EEA430E08BF20EAD37070BD94F0000F6A
:100920000FD101F00046400041EB010111F4801F9E
:1009300008BF013CF7D041EA060195F0000F18BF4F
:10094000704703F00046520043EB030313F4801F8B
:1009500008BF013DF7D043EA0603704794EA0C0F45
:100960000CEA135518BF95EA0C0F0CD050EA41065B
:1009700018BF52EA4306D1D181EA030101F00041D8
:100980004FF0000070BD50EA410606BF1046194600
:1009900052EA430619D094EA0C0F02D150EA01360C
:1009A00013D195EA0C0F05D152EA03361CBF10464D
:1009B00019460AD181EA030101F0004141F0FE41EC
:1009C00041F470014FF0000070BD41F0FE4141F470
:1009D000780170BD70B54FF0FF0C4CF4E06C1CEA70
:1009E00011541DBF1CEA135594EA0C0F95EA0C0F25
:1009F00000F0A7F8A4EB050481EA030E52EA0335E0
:100A00004FEA013100F088804FEA03334FF0805500
:100A100045EA131343EA12634FEA022245EA11152D
:100A200045EA10654FEA00260EF000419D4208BFDE
:100A3000964244F1FD0404F5407402D25B084FEA8B
:100A40003202B61A65EB03055B084FEA32024FF437
:100A500080104FF4002CB6EB020E75EB030E22BF94
:100A6000B61A754640EA0C005B084FEA3202B6EB54
:100A7000020E75EB030E22BFB61A754640EA5C0003
:100A80005B084FEA3202B6EB020E75EB030E22BF93
:100A9000B61A754640EA9C005B084FEA3202B6EB94
:100AA000020E75EB030E22BFB61A754640EADC0053
:100AB00055EA060E18D04FEA051545EA16754FEAB5
:100AC00006164FEAC30343EA52734FEAC2025FEAD3
:100AD0001C1CC0D111F4801F0BD141EA00014FF062
:100AE00000004FF0004CB6E711F4801F04BF014333
:100AF0000020B4F1FD0C88BFBCF5E06F3FF6AFAE4F
:100B0000B5EB030C04BFB6EB020C5FEA500C50F1DE
:100B1000000041EB045170BD0EF0004E4EEA113161
:100B200014EB5C04C2BFD4EB0C0541EA045170BD68
:100B300041F480114FF0000E013C90E645EA060EAC
:100B40008DE60CEA135594EA0C0F08BF95EA0C0FDA
:100B50003FF43BAF94EA0C0F0AD150EA01347FF422
:100B600034AF95EA0C0F7FF425AF104619462CE7F9
:100B700095EA0C0F06D152EA03353FF4FDAE10465C
:100B8000194622E750EA410618BF52EA43067FF4AD
:100B9000C5AE50EA41047FF40DAF52EA43057FF43D
:100BA000EBAE12E74FEA410212F5001215D211D551
:100BB0006FF47873B3EB625212D94FEAC12343F05A
:100BC000004343EA505311F0004F23FA02F018BFDC
:100BD000404270474FF00000704750EA013005D1A5
:100BE00011F0004008BF6FF0004070474FF0000068
:100BF000704700BF4FEA4102B2F1E04324BFB3F5B2
:100C0000001CDCF1FE5C0DD901F0004C4FEAC00283
:100C10004CEA5070B2F1004F40EB830008BF20F067
:100C20000100704711F0804F21D113F13872BCBF21
:100C300001F00040704741F480114FEA5252C2F176
:100C40001802C2F1200C10FA0CF320FA02F018BFBF
:100C500040F001004FEAC1234FEAD32303FA0CFC12
:100C600040EA0C0023FA02F34FEA4303CCE77FEAA1
:100C7000625307D150EA01331EBF4FF0FE4040F4EB
:100C80004000704701F0004040F0FE4040F400009A
:100C9000704700BF80F0004002E000BF81F00041DB
:100CA00042001FBF5FEA410392EA030F7FEA226C12
:100CB0007FEA236C6AD04FEA1262D2EB1363C1BFA2
:100CC000D218414048404140B8BF5B42192B88BF11
:100CD000704710F0004F40F4000020F07F4018BF34
:100CE000404211F0004F41F4000121F07F4118BF54
:100CF000494292EA030F3FD0A2F1010241FA03FCFC
:100D000010EB0C00C3F1200301FA03F100F00043E3
:100D100002D5494260EB4000B0F5000F13D3B0F1AB
:100D2000807F06D340084FEA310102F10102FE2A1A
:100D300051D2B1F1004F40EBC25008BF20F001008A
:100D400040EA03007047490040EB000010F4000F38
:100D5000A2F10102EDD1B0FA80FCACF1080CB2EBCB
:100D60000C0200FA0CF0AABF00EBC250524218432A
:100D7000BCBFD0401843704792F0000F81F40001CF
:100D800006BF80F400000132013BB5E74FEA4103A2
:100D90007FEA226C18BF7FEA236C21D092EA030F0E
:100DA00004D092F0000F08BF0846704790EA010F88
:100DB0001CBF0020704712F07F4F04D1400028BFB5
:100DC00040F00040704712F100723CBF00F5000097
:100DD000704700F0004343F0FE4040F400007047CD
:100DE0007FEA226216BF08467FEA23630146420279
:100DF00006BF5FEA412390EA010F40F4800070478C
:100E00004FF0000304E000BF10F0004348BF404231
:100E10005FEA000C08BF704743F0964301464FF06D
:100E200000001CE050EA010208BF70474FF00003C9
:100E30000AE000BF50EA010208BF704711F000430A
:100E400002D5404261EB41015FEA010C02BF8446DA
:100E50000146002043F0B64308BFA3F18053A3F539
:100E60000003BCFA8CF2083AA3EBC25310DB01FA80
:100E700002FC634400FA02FCC2F12002BCF1004F04
:100E800020FA02F243EB020008BF20F00100704795
:100E900002F1200201FA02FCC2F1200250EA4C00E9
:100EA00021FA02F243EB020008BF20EADC7070472F
:100EB0004FF0FF0C1CEAD0521EBF1CEAD15392EA3D
:100EC0000C0F93EA0C0F6FD01A4480EA010C400219
:100ED00018BF5FEA41211ED04FF0006343EA501073
:100EE00043EA5111A0FB01310CF00040B1F5000FB5
:100EF0003EBF490041EAD3715B0040EA010062F164
:100F00007F02FD2A1DD8B3F1004F40EBC25008BF4D
:100F100020F00100704790F0000F0CF0004C08BF6B
:100F200049024CEA502040EA51207F3AC2BFD2F138
:100F3000FF0340EAC250704740F400004FF0000346
:100F4000013A5DDC12F1190FDCBF00F00040704780
:100F5000C2F10002410021FA02F1C2F1200200FABE
:100F600002FC5FEA310040F1000053EA4C0308BF85
:100F700020EADC70704792F0000F00F0004C02BFD6
:100F8000400010F4000F013AF9D040EA0C0093F051
:100F9000000F01F0004C02BF490011F4000F013BAB
:100FA000F9D041EA0C018FE70CEAD15392EA0C0F19
:100FB00018BF93EA0C0F0AD030F0004C18BF31F084
:100FC000004CD8D180EA010000F00040704790F05A
:100FD000000F17BF90F0004F084691F0000F91F0FE
:100FE000004F14D092EA0C0F01D142020FD193EAC4
:100FF0000C0F03D14B0218BF084608D180EA01004C
:1010000000F0004040F0FE4040F40000704740F027
:10101000FE4040F4400070474FF0FF0C1CEAD052F5
:101020001EBF1CEAD15392EA0C0F93EA0C0F69D051
:10103000A2EB030280EA010C49024FEA402037D0BC
:101040004FF0805343EA111143EA10130CF00040B3
:101050008B4238BF5B0042F17D024FF4000C8B42A3
:1010600024BF5B1A40EA0C00B3EB510F24BFA3EB83
:10107000510340EA5C00B3EB910F24BFA3EB910353
:1010800040EA9C00B3EBD10F24BFA3EBD10340EAAD
:10109000DC001B0118BF5FEA1C1CE0D1FD2A3FF6F3
:1010A00050AF8B4240EBC25008BF20F001007047A8
:1010B0000CF0004C4CEA50207F32C2BFD2F1FF034B
:1010C00040EAC250704740F400004FF00003013A7C
:1010D00037E792F0000F00F0004C02BF400010F420
:1010E000000F013AF9D040EA0C0093F0000F01F034
:1010F000004C02BF490011F4000F013BF9D041EA56
:101100000C0195E70CEAD15392EA0C0F08D1420288
:101110007FF47DAF93EA0C0F7FF470AF084676E75B
:1011200093EA0C0F04D14B023FF44CAF08466EE734
:1011300030F0004C18BF31F0004CCAD130F0004202
:101140007FF45CAF31F000437FF43CAF5FE700BF5A
:101150004FF0FF3C06E000BF4FF0010C02E000BF83
:101160004FF0010C4DF804CD4FEA40024FEA410325
:101170007FEA226C18BF7FEA236C11D001B052EADB
:10118000530C18BF90EA010F58BFB2EB030088BFA1
:10119000C81738BF6FEAE17018BF40F00100704710
:1011A0007FEA226C02D15FEA402C05D17FEA236CF2
:1011B000E4D15FEA412CE1D05DF8040B704700BF39
:1011C000844608466146FFE70FB5FFF7C9FF0028D0
:1011D00048BF10F1000F0FBD4DF808EDFFF7F4FF09
:1011E0000CBF012000205DF808FB00BF4DF808EDA2
:1011F000FFF7EAFF34BF012000205DF808FB00BFC5
:101200004DF808EDFFF7E0FF94BF012000205DF8E6
:1012100008FB00BF4DF808EDFFF7D2FF94BF012097
:1012200000205DF808FB00BF4DF808EDFFF7C8FF90
:1012300034BF012000205DF808FB00BF4FEA4002E8
:10124000B2F1FE4F0FD34FF09E03B3EB12620DD9F4
:101250004FEA002343F0004310F0004F23FA02F05E
:1012600018BF404270474FF00000704712F1610F05
:1012700001D1420205D110F0004008BF6FF00040DC
:1012800070474FF00000704742000ED2B2F1FE4F9F
:101290000BD34FF09E03B3EB126209D44FEA002345
:1012A00043F0004323FA02F070474FF0000070470C
:1012B00012F1610F01D1420202D14FF0FF307047AD
:1012C0004FF00000704700BF10B504460021FFF743
:1012D0008DFF20B104F10040FFF7D6FF10BD20467E
:1012E000FFF7D2FF10BD00BF00B583B001A801F029
:1012F00039FD019803B05DF804FB00BF70B50446EA
:101300000E461546FFF772FF30B920462946FFF713
:101310008BFF18B1284670BD304670BD204670BDA9
:1013200038B505460C46FFF77FFF08B1284638BDA3
:10133000204638BD08B5032816D8DFE800F00207BC
:101340000C110A4B986801F039F908BD074B586831
:1013500001F006F908BD054B186901F087F908BDD1
:10136000024BD86801F056F908BD00BFE0E1FF1F4D
:1013700082684068101A70472DE9F8438046FFF7ED
:10138000F7FF0646D8F80C100846FFF791FD074610
:10139000D8F81400FFF7A0F902460B46FFF73EF815
:1013A00004460D463846FFF797F922462B46FFF7CD
:1013B00011FBFFF7F7FB5EB9012809DC0023C8F831
:1013C0001C300022C8F80C20C8F82C30BDE8F88387
:1013D000002E18DDD8F82C30002B08DDB04202DAE0
:1013E00098F83C305BBB4042C8F82C0027E0002B4B
:1013F00025DAB04223DA98F83C20012A1FD15B425B
:10140000C8F82C301BE0002E19DAD8F82C30002B4D
:101410000ADD7342834203DD98F83C30012B0ED184
:101420004042C8F82C000AE0002B08DA72428242DF
:1014300005DD98F83C2012B95B42C8F82C30D8F88A
:101440002C90B9F1000F0AD1D8F83030C8F83430F8
:10145000002ED4BF0026012688F83C602CE0D8F886
:101460003400FFF739F904460D4602460B46FEF7F5
:10147000D5FF06460F464846FFF71CF900221C4BD5
:10148000FFF77EF900221B4BFEF7C8FF02460B4612
:1014900030463946FFF79EFA02460B46204629465B
:1014A000FEF7BAFFFFF7A6FBC8F83400D8F83810EB
:1014B000FFF736FFC8F83400D8F82C300133C8F8ED
:1014C0002C30D8F834402046FFF7DEFEC8F81C0068
:1014D00009482146FFF7A0FDC8F80C0098F83C30F9
:1014E0001BB900F10040C8F80C00BDE8F88300BF4C
:1014F000000010400000F03F0024744908B58368E4
:101500008B4202D08160FFF737FF08BD08B5436802
:101510001944FFF7F3FF08BDF8B506460C4600690D
:10152000FFF75AFE18BB346111482146FFF774FDDE
:10153000B063F36A002B1ADDF1680846FFF7B8FCC8
:1015400007467069FFF7C8F802460B46FEF766FFCC
:1015500004460D463846FFF7BFF822462B46FFF7F4
:1015600039FAFFF71FFBF0623046FFF705FFF8BDC1
:101570000024744900000000F8B505460C460846F2
:101580000021FFF729FE002833D16E69304621463D
:10159000FFF722FE68BBEF6A30462146FFF73CFDAD
:1015A00006463846FFF730FC3146FFF781FCFFF76F
:1015B00045FEE8622046FFF78FF802460B46002002
:1015C0004FF08041FFF706FA00220F4BFFF7D8F8E3
:1015D00009A3D3E90023FFF7D3F809A3D3E9002334
:1015E000FFF7CEF8FFF706FB28636C612846FFF78C
:1015F000C3FEF8BDAFF300806F1283C0CAA1E53F00
:101600000000000080842E410000E03FAFF3008026
:1016100070B504460D46C068FFF7DEFD00BB2269C9
:1016200002F100412846FFF769FE05460021FFF759
:10163000D3FD10B10023E36111E00A482946FFF70A
:10164000EBFCFFF741FEE0614FF001062846002168
:10165000FFF7EAFD08B94FF0000684F83C60E5604A
:1016600070BD00BF0024744970B505460E460024C5
:101670000EE0285D46FA04F313F0010F05EB0403B6
:10168000997818BF81F00101FFF754FE0134E4B2EC
:10169000012CEED970BD00BF10B5044690F83C3067
:1016A000002B0CBF00210221FFF7DEFF40F6C41023
:1016B00001F0D0FC94F83C30002B20460CBF0121F7
:1016C0000321FFF7D1FF636A322202FB03F252B11A
:1016D0004BB1B3F57A7F06D3154AA2FB0310C0F3D2
:1016E0008F1001F0DBFC626A114BA3FB02139B0914
:1016F0004FF47A7101FB1323322202FB03F262B131
:101700000A2A02D801F094FC07E003EB830303EB01
:101710008303580080B201F09DFC94F83C30002B0C
:1017200020460CBF00210221FFF79EFF10BD00BF25
:10173000D34D621038B50446C36903B3FFF7D4FD37
:10174000134D2D1A236AE2699A1803D2954207D2E3
:101750009D4205D3934214D9954214D39D4214D28D
:1017600094F83C30012B63680CBF013303F1FF3365
:1017700063602046FFF790FF2562012038BD0020FE
:1017800038BD002038BD002038BD002038BD00BF66
:1017900000286BEE08B590F82930FF2B06D090F8A2
:1017A0002810184681F00101FFF7C4FD08BD00BFF5
:1017B00070B504460023436083600020E060124D52
:1017C000256160614FF07E55A561E3613226666256
:1017D000FF2684F82960236221706270E36220632F
:1017E0006063A56384F83C30194602E0E21891700A
:1017F0000133012BFADD2046FFF7CCFF20460349D9
:10180000FFF7BAFE70BD00BF00002041000020427B
:1018100008B5826843689A4207D0CCBF01230023F1
:1018200080F83C30FFF786FF08BD002008BD00BFF0
:1018300070B5104C204600F059FD20600023237144
:1018400063710D4BA360661D0125206831462A4651
:1018500000F0C8FD0028F8D1084803210222FFF754
:10186000A7FF074801210022FFF7A2FF00F0BAFB03
:1018700070BD00BF78E0FF1F2D2E000094E0FF1F19
:10188000D8E0FF1F08B501280AD14FF6FF7399422F
:1018900006D1044800F0C4FB034B1A68034B1A60DE
:1018A00008BD00BF1CE1FF1F00E0FF1F70E1FF1F2C
:1018B00010B5FFF7BDFF084800F0C6FB4FF4FA7003
:1018C00001F0ECFB044C01F00DFB0028FBD020469E
:1018D00000F0D2FBF7E700BF1CE1FF1F08B50120B5
:1018E0004FF6FF71FFF7CEFF08BD00BF704700BF86
:1018F00010B50446836840799847214651F8050B96
:10190000012200F06FFD10BD01230371704700BF7D
:1019100070B582B00C4602AD05F8010D00230B71C5
:10192000012620682946324600F08EFD0028F8D1B5
:10193000237913F0FF0FFBD002B070BD38B5044619
:101940000D4603E001342946FFF7E2FF2078002826
:10195000F8D138BD08B5084B1A68084B1B689A4285
:101960000CBF074807480849FFF7E8FF0748064942
:10197000FFF7E4FF08BD00BF70E1FF1F00E0FF1F9D
:101980007C3200008032000078E0FF1F84320000CB
:1019900030B583B00B4D2B7830338DF804300D23E8
:1019A0008DF805300A238DF80630074C01A8214632
:1019B000FFF7C4FF00232B7004482146FFF7BEFF4A
:1019C00003B030BD74E0FF1F78E0FF1F84320000D9
:1019D00008B502480249FFF7B1FF08BD8432000094
:1019E00078E0FF1F08B5094800F098FB40B101F00E
:1019F00063FB074B186007480749FFF79FFF08BDC7
:101A000006480549FFF79AFF08BD00BF1CE1FF1F0C
:101A100084E0FF1F8432000078E0FF1F8C3200005A
:101A200008B502480249FFF789FF08BD843200006B
:101A300078E0FF1F08B5094800F070FB40B101F0E5
:101A40003BFB074B186007480749FFF777FF08BDC6
:101A500006480549FFF772FF08BD00BF1CE1FF1FE4
:101A600090E0FF1F8432000078E0FF1F8C320000FE
:101A700008B5044B1A6801321A6003480349FFF79E
:101A80005DFF08BD90E0FF1F8432000078E0FF1F7B
:101A900008B5044B1A68013A1A6003480349FFF776
:101AA0004DFF08BD90E0FF1F8432000078E0FF1F6B
:101AB0002DE9F041784C204600F030FB05462046E9
:101AC00000F02CFB0746204600F028FB064625B117
:101AD000284601F0F1FA85B200E0002527B138462A
:101AE00001F0EAFA044600E00024002E00F0CD8068
:101AF000304601F0E1FA064664BB58BB322303FBD3
:101B000005F34BB145B1B5F57A7F05D36348A0FB2A
:101B10000520800901F0C2FA604BA3FB05239B0955
:101B20004FF47A7202FB13539BB2322202FB03F290
:101B300062B10A2A02D801F07BFA07E003EB8303C3
:101B400003EB8303580080B201F084FA54485549EE
:101B5000FFF7F4FE14B9002E00F09B80524B1B7867
:101B6000012B2ED1514A1278012A2AD1504F3846E2
:101B70003146FFF7CBFC3046FFF746F94D49FFF7FA
:101B800097F980462846FFF73BF90646404631461E
:101B9000FFF742FA01463846FFF73AFD464D284620
:101BA0002146FFF7B3FC2046FFF72EF94149FFF726
:101BB0007FF93146FFF730FA01462846FFF728FD46
:101BC0004CE0360196FBF3F33C4A126813442401BF
:101BD000364A127894FBF2F4394A126814441F46CC
:101BE000002BB8BF03F10F073F112646002CB8BFEA
:101BF00004F10F063611A3EB0713304A1360A4EB70
:101C000006142F4B1C604FF47A7303FB07F003FBA1
:101C100006F393FBF5F490FBF5F0FFF7F5F880463B
:101C20002046FFF7F1F80546214C20463946FFF7DC
:101C30006DFC20464146FFF7EBFC1F4C2046314629
:101C4000FFF764FC20462946FFF7E2FC06E0204649
:101C5000FFF7DEFD2846FFF7DBFD02E0164C144DD2
:101C600001262046FFF784FB30B92846FFF780FBAA
:101C7000031C18BF012300E03346002BE7D10848BE
:101C80000849FFF75BFEBDE8F0810E480549FFF704
:101C900055FEBDE8F08100BF1CE1FF1FD34D62106F
:101CA0008432000078E0FF1F08E0FF1F09E0FF1FFB
:101CB00094E0FF1F00007A44D8E0FF1F18E1FF1FE7
:101CC0008CE0FF1F8C32000010B5384800F026FA77
:101CD0000446E8B101F0F0F910B101280AD013E090
:101CE000334B1968334B1960334B586A89B201F092
:101CF00079F80DE0314B19682E4B19602E4B586A5C
:101D000089B201F06FF803E02D482E49FFF716FE67
:101D1000264800F003FA0346B0B301F0CDF90446BB
:101D2000322303FB00F37BB170B100F2E73240F2E3
:101D3000CE739A4208D9244880FB0420E317C3EBF2
:101D4000A01080B201F0AAF91F4B83FB0423E21715
:101D5000C2EBA3134FF47A7202FB1343322202FB4D
:101D600003F262B10A2A02D801F062F907E003EB3C
:101D7000830303EB8303580080B201F06BF913482F
:101D80001049FFF7DBFD10BD48B944B140F6C4105F
:101D900001F060F90D480B49FFF7D0FD10BD23B9E4
:101DA0001CB907480749FFF7C9FD10BD1CE1FF1F1B
:101DB00004E0FF1F70E1FF1FE0E1FF1F00E0FF1FD5
:101DC0008C32000078E0FF1FD34D62108432000097
:101DD00008B5104800F0A2F908B101F06DF90E4BFA
:101DE0001A680E4B1B689A4204D10D4B1A680A4BB5
:101DF0001A6001E0084A13600A4B586A064B1988BA
:101E000000F0F0FFFA2001F049F907480749FFF711
:101E100095FD08BD1CE1FF1F70E1FF1F00E0FF1FE3
:101E200004E0FF1FE0E1FF1F8432000078E0FF1FA5
:101E300038B5154800F072F9044610B101F03CF9CC
:101E40000546114800F06AF908B101F035F9CCB146
:101E500015B1012D09D011E00C4B586900F038FC88
:101E60000B480C49FFF76AFD38BD084B586900F074
:101E700029FC07480749FFF761FD38BD06480549B9
:101E8000FFF75CFD38BD00BF1CE1FF1FE0E1FF1F55
:101E90008432000078E0FF1F8C320000F8B538482B
:101EA00000F03CF9044610B101F006F90746344849
:101EB00000F034F9054610B101F0FEF80646002C9A
:101EC0005DD0002D5BD03B1F082B54D8DFE803F01A
:101ED00005203B40535353454C002A4B83FB0623BC
:101EE0003344F617C6EBE313193B4FF47A7202FB47
:101EF00003F3254A82FB0312DB17C3EB621303F5DE
:101F00007A73224A136022482249FFF717FDF8BD71
:101F10001C4B83FB06233344F617C6EBE313193B34
:101F20004FF47A7202FB03F3174A82FB0312DB17AA
:101F3000C3EB621303F57A73174A1360144815490B
:101F4000FFF7FCFCF8BD12481249FFF7F7FCF8BD9B
:101F50000F481049FFF7F2FCF8BD104B1E600C480B
:101F60000C49FFF7EBFCF8BD0D4B1E600848094912
:101F7000FFF7E4FCF8BD0B480649FFF7DFFCF8BDAE
:101F80001CE1FF1F898888881F85EB5100E0FF1F37
:101F90008432000078E0FF1F04E0FF1F88E0FF1F8D
:101FA000D4E0FF1F8C32000008B502480249FFF759
:101FB000C5FC08BD9C32000078E0FF1F08B5024850
:101FC0000249FFF7BBFC08BD8C32000078E0FF1F20
:101FD00008B502480249FFF7B1FC08BD8432000091
:101FE00078E0FF1F70B50A4D0A4E28463146FFF7CC
:101FF00093FA094C28462146FFF7BEFA074D2846BA
:102000003146FFF789FA28462146FFF7B5FA70BD39
:1020100094E0FF1F0000FA4300002041D8E0FF1FBA
:1020200000220260027182602021017342730D213F
:10203000817380F84F200265704700BF0023C3738F
:1020400080F84F30704700BF10B504460D238373EE
:1020500010230371054B8360054B40F80C3B054989
:1020600001F02EF82046FFF7E9FF10BDBD1F00006C
:10207000C8320000C43200002DE9F04782B00446A7
:10208000002700F10F0842E00DF1070000F0FCFE10
:102090009DF8072094F90E309A422CD1404604F165
:1020A0000C0104F1500201F055F8064698B91EE003
:1020B000C5EBC5039B009A462168304619444A4641
:1020C00001F006F828B9236853449B699847012317
:1020D00008E0013502E03D464FF014092379AB4298
:1020E000E6DC3B461BB9A3680BB130469847204657
:1020F000FFF7A4FF0BE094F84F303E2B07D8591C94
:10210000C9B284F84F102344DA732144CF7300F02E
:10211000E9FE0028B8D102B0BDE8F08708B5024654
:10212000002002F10C01503201F014F808BD00BF8C
:1021300008B500F0ADFDFFF7BBFBFEE70F4A104B03
:102140001946D31A19D015E011F0030F05D1032B4E
:1021500003D941F8042B043B0DE011F0010F05D128
:10216000012B03D921F8022B023B04E001F8012BDB
:10217000013B00E00022002BE6D170476CE2FF1F1C
:1021800074E0FF1F884224D00ABB704711F0030F90
:102190000AD110F0030F07D1032A05D951F8043BE7
:1021A00040F8043B043A12E011F0010F0AD110F09C
:1021B000010F07D1012A05D931F8023B20F8023B73
:1021C000023A04E011F8013B00F8013B013A002A11
:1021D000DCD1704738B5104BEBB100241D4608E048
:1021E00004EB440305EB830358689A68FFF7CAFFC2
:1021F000013404EB440355F823100029F0D105EB1A
:1022000083035B68002BEBD104EB440305EB8303F2
:102210009B68002BE4D138BD04360000704700BF36
:10222000704700BF08B5FFF7F9FF00F09DFC0C4BAD
:102230001846002800F00880854681B04FF0000065
:102240006FEA0000009001B0FFF778FFFFF7C2FFD0
:10225000FFF7E6FF00200349FFF76AFFFEE700BF34
:102260000000002074E1FF1F08B50B4BDB79D9B2E9
:1022700003897BB14268531C43601170438801336A
:102280009BB243800289934204D1002303814069B9
:10229000FFF72EFB08BD00BF00A0064008B542892D
:1022A000038A9A4212D2C3685A1CC2601A780E4B33
:1022B000DA71438901339BB24381028A934211D17F
:1022C000002303824069FFF71FFB08BD064BDA7845
:1022D00002F07F02DA709A79D2B29A71038823F001
:1022E0000103038008BD00BF00A0064010B4354ABA
:1022F000002151801181516051811182D160506162
:10230000314B1A60314B1A60314841F23403C458E2
:1023100044F48064C4502F4B186C20F0807020F47B
:10232000E06040F440701864586C20F0807020F435
:10233000E06040F440705864274B802083F810031D
:102340001C6844F480341C6083F81103186840F45E
:1023500000301860214BD87800F0F700D870D8789A
:1023600000F0FB00D87011809970997199725971C1
:102370005973997A01F0E00141F0080199721978D6
:1023800001F0E001197036215970197C41F0880183
:102390001974597C41F0C0015974D97841F0080191
:1023A000D970D97841F00401D970D97841F0200171
:1023B000D9709979C9B29971094B1A6010465DF8C4
:1023C000044B7047A4E1FF1F9CE1FF1FA0E1FF1F2A
:1023D0000070044000A0044000E100E000A00640BE
:1023E000E0E1FF1F30B482B00446154602B3038912
:1023F00003BBEFF3138071B68DF807001048027825
:102400000132D2B20270012A03D19DF807000D4AB1
:102410001070616025810022628009490A78013AC2
:10242000D2B20A703AB9074A107880F3138802E0F2
:10243000842300E00823184602B030BC704700BF78
:10244000D0E1FF1F68E2FF1F30B482B0044615469A
:10245000002A2DD0038A002B2CD1EFF3138071B604
:102460008DF80700164802780132D2B20270012AB4
:1024700003D19DF80700134A1070E1602582002205
:102480006281228842F0010222800F4AD17841F015
:102490008001D1709179C9B2917109490A78013AE4
:1024A000D2B20A703AB9074A107880F3138802E072
:1024B000842300E00823184602B030BC704700BFF8
:1024C000D0E1FF1F68E2FF1F00A00640684620F031
:1024D00007018D4631B5104B1D68104B1C79E4B2D5
:1024E00014F00F0F1CBFDB7904F0DF0404F02003AD
:1024F0009BB213B12846FFF7B7FE2B8813F0010FEC
:1025000006D004F08004A4B214B12846FFF7C6FE3A
:10251000BDE83140854670479CE1FF1F00A00640A2
:102520000B4A10600B4B596941F48071596119686D
:1025300021F48071196008490B6A23F0807323F439
:10254000E06343F480730B62044B5A60104670479B
:10255000BCE1FF1F80F00F4000B00440E0E1FF1F2E
:1025600021B14FF48072044B5A6070474FF480726F
:10257000014B9A60704700BF80F00F400B4A10601B
:102580000B4B596941F002015961196821F00201B0
:10259000196008494B6823F0807323F4E06343F427
:1025A00080734B60044B9A6010467047C0E1FF1F78
:1025B00000F00F4000900440E0E1FF1F19B102223B
:1025C000034B5A6070470222014B9A60704700BF6C
:1025D00000F00F400B4A10600B4B596941F020018D
:1025E0005961196821F02001196008494B6923F0ED
:1025F000807323F4E06343F480734B61044BDA602F
:1026000010467047C4E1FF1F00F00F4000900440E7
:10261000E0E1FF1F19B12022034B5A6070472022CE
:10262000014B9A60704700BF00F00F400B4A1060EA
:102630000B4B596941F010015961196821F01001E3
:10264000196008490B6923F0807323F4E06343F4B5
:1026500080730B61044B1A6110467047C8E1FF1F7D
:10266000C0F00F4000C00440E0E1FF1F19B110228C
:10267000034B5A6070471022014B9A60704700BFAD
:10268000C0F00F400B4A10600B4B596941F010012C
:102690005961196841F01001196008490B6923F06C
:1026A000807323F4E06343F480730B61044B5A613D
:1026B00010467047CCE1FF1F80F00F4000B004408F
:1026C000E0E1FF1F1022014B9A60704780F00F403D
:1026D0001022014B5A60704780F00F40684620F08E
:1026E00007018D4601B5FFF701F9BDE801408546B8
:1026F000704700BF684620F007018D4601B4FFBE59
:102700005DF8040B85467047684620F007018D464A
:1027100001B4FFBE5DF8040B85467047684620F0A3
:1027200007018D4601B4FFBE5DF8040B8546704776
:10273000684620F007018D4601B4FFBE5DF8040B2A
:1027400085467047684620F007018D4601B4FFBEFC
:102750005DF8040B85467047684620F007018D46FA
:1027600001B4FFBE5DF8040B85467047684620F053
:1027700007018D4601B4FFBE5DF8040B8546704726
:10278000684620F007018D4601B4FFBE5DF8040BDA
:1027900085467047684620F007018D4601B4FFBEAC
:1027A0005DF8040B85467047684620F007018D46AA
:1027B00001B4FFBE5DF8040B85467047684620F003
:1027C00007018D4601B4FFBE5DF8040B85467047D6
:1027D000684620F007018D4601B4FFBE5DF8040B8A
:1027E00085467047684620F007018D4601B4FFBE5C
:1027F0005DF8040B85467047684620F007018D465A
:1028000001B4FFBE5DF8040B85467047684620F0B2
:1028100007018D4601B4FFBE5DF8040B8546704785
:10282000684620F007018D4601B4FFBE5DF8040B39
:1028300085467047684620F007018D4601B4FFBE0B
:102840005DF8040B85467047684620F007018D4609
:1028500001B4FFBE5DF8040B85467047684620F062
:1028600007018D4601B4FFBE5DF8040B8546704735
:10287000684620F007018D4601B4FFBE5DF8040BE9
:1028800085467047684620F007018D4601B4FFBEBB
:102890005DF8040B85467047684620F007018D46B9
:1028A00001B4FFBE5DF8040B85467047684620F012
:1028B00007018D4601B4FFBE5DF8040B85467047E5
:1028C000684620F007018D4601B4FFBE5DF8040B99
:1028D00085467047684620F007018D4601B4FFBE6B
:1028E0005DF8040B85467047684620F007018D4669
:1028F00001B4FFBE5DF8040B85467047684620F0C2
:1029000007018D4601B4FFBE5DF8040B8546704794
:10291000684620F007018D4601B4FFBE5DF8040B48
:1029200085467047684620F007018D4601B4FFBE1A
:102930005DF8040B85467047684620F007018D4618
:1029400001B4FFBE5DF8040B85467047684620F071
:1029500007018D4601B4FFBE5DF8040B8546704744
:10296000684620F007018D4601B4FFBE5DF8040BF8
:1029700085467047684620F007018D4601B4FFBECA
:102980005DF8040B85467047684620F007018D46C8
:1029900001B4FFBE5DF8040B85467047684620F021
:1029A00007018D4601B4FFBE5DF8040B85467047F4
:1029B000684620F007018D4601B4FFBE5DF8040BA8
:1029C00085467047684620F007018D4601B4FFBE7A
:1029D0005DF8040B85467047684620F007018D4678
:1029E00001B4FFBE5DF8040B85467047684620F0D1
:1029F00007018D4601B4FFBE5DF8040B85467047A4
:102A0000684620F007018D4601B4FFBE5DF8040B57
:102A100085467047684620F007018D4601B4FFBE29
:102A20005DF8040B85467047684620F007018D4627
:102A300001B4FFBE5DF8040B85467047684620F080
:102A400007018D4601B4FFBE5DF8040B8546704753
:102A5000684620F007018D4601B4FFBE5DF8040B07
:102A600085467047684620F007018D4601B4FFBED9
:102A70005DF8040B85467047684620F007018D46D7
:102A800001B4FFBE5DF8040B85467047684620F030
:102A900007018D4601B4FFBE5DF8040B8546704703
:102AA000684620F007018D4601B4FFBE5DF8040BB7
:102AB00085467047684620F007018D4601B4FFBE89
:102AC0005DF8040B85467047684620F007018D4687
:102AD00001B4FFBE5DF8040B85467047684620F0E0
:102AE00007018D4601B4FFBE5DF8040B85467047B3
:102AF000684620F007018D4601B4FFBE5DF8040B67
:102B000085467047684620F007018D4601B4FFBE38
:102B10005DF8040B85467047684620F007018D4636
:102B200001B4FFBE5DF8040B85467047684620F08F
:102B300007018D4601B4FFBE5DF8040B8546704762
:102B4000684620F007018D4601B4FFBE5DF8040B16
:102B500085467047684620F007018D4601B4FFBEE8
:102B60005DF8040B854670474FF0E0233E4AC3F8FA
:102B7000082D3E4B4CF22052DA814DF62812DA81B4
:102B80004FF4E9721A80A3F53043394941F2440207
:102B9000995041F23802995841F4F051995003F597
:102BA00058339B7813F0080F04D0324B9A7842F0D8
:102BB00008029A70304B314941F24402995041F277
:102BC0000402995841F4803199501A6822F4402245
:102BD0001A6003F500539A6C22F0807222F4E062CE
:102BE0009A64DA6C22F0807222F4E062DA6403F50F
:102BF000D83324225A708021214A11701A7B02F0A6
:102C0000FE021A739A221A70DA7802F01F02DA7042
:102C100021221A7101225A711A46937913F0020F78
:102C2000FBD0184A937913F0100FFBD1154A937912
:102C300003F00C03082BFAD14122124B5A711A46A9
:102C4000937903F00C03082BFAD10E4A937913F011
:102C5000400FFBD01A220B4B1A701A46937903F0DF
:102C60000C030C2BFAD17047000000000020054037
:102C70000000030100D00740007004400000031969
:102C8000005006400040064080F31188704700BFA6
:102C900010B5234A136923F0807323F4E06343F4EF
:102CA000E06313611F4B5A7902F0E0025A711A79FE
:102CB00002F0F8021A71A3F500539A7802F0F602B6
:102CC0009A701A7802F08C0242F050021A705A7808
:102CD00002F09C0242F040025A70002403F5805337
:102CE0001C70114B83F808432046FFF719FC20465F
:102CF000FFF744FC2046FFF76DFC2046FFF796FCEB
:102D00002046FFF7BFFC204600F010F800F0F0F876
:102D1000204600F04DF82046FFF7B6FF10BD00BF7B
:102D20000090044000F0074000E100E010B5084CBE
:102D3000A06001232371074BDC61002000F0E6F85E
:102D4000206018B90022034BDA6110BD004810BDA5
:102D5000D4E1FF1FE0E1FF1F08B5006800F006F9AD
:102D600008BD00BF10B50446034BD869FFF7F4FF58
:102D70002060002010BD00BFE0E1FF1F10B582B051
:102D8000044600680DF1060100F03EF9BDF806307A
:102D90000BB9E28805E0E28802FB03F202F500428B
:102DA000120C2068002100F039F902B010BD00BFFC
:102DB00010B50A4CA0600123237141F23333E38044
:102DC000074B5C62002000F0D7F8206018B90022A1
:102DD000034B5A6210BD014810BD00BF08E2FF1F3F
:102DE000E0E1FF1F38B5044644F62063994217D846
:102DF0000846FEF709F80B49FEF75AF805460A4956
:102E0000FEF712FA18B14FF6FF73E38003E028468D
:102E1000FEF73AFAE0802046FFF7B0FF002038BD09
:102E2000862038BD17B7514000FF7F4710B483B0EC
:102E30000446EFF3108072B68DF807000F4B1B7835
:102E4000402B10D00E490A780E4884540132D2B279
:102E50000A70402A02D10021094A11700133074A41
:102E60001370002300E00B239DF8070080F3108807
:102E7000184603B05DF8044B704700BF54E2FF1FD3
:102E800056E2FF1F14E2FF1F10B483B00246EFF3B7
:102E9000108072B68DF807000F4B1B787BB10F497D
:102EA00008780F4C245C1470013B0B4A1370431CD0
:102EB000DBB20B70402B04D100230B7002E00A231D
:102EC00000E000239DF8070080F31088184603B047
:102ED0005DF8044B704700BF54E2FF1F55E2FF1F2F
:102EE00014E2FF1F014B1878704700BF54E2FF1F28
:102EF0000023034A1370034A1370034A1370704788
:102F000056E2FF1F55E2FF1F54E2FF1F10B40246B6
:102F1000114B9869C8B911484260012202701049EA
:102F200041F23C03CC5844F40004CC500D4B00213A
:102F30001960C3F80811C3F80C210B49C3F800113C
:102F4000C3F80821044B986103E042600378013321
:102F500003705DF8044B7047E0E1FF1F58E2FF1F6C
:102F60000070044000700340FF276BEE014BD3F864
:102F7000040170470070034002461E4B186A002887
:102F800032D11D484260012303701C4A41F23C03C8
:102F9000D15841F08071D150194B0421596500225C
:102FA0001A60DA645A60DA605A61DA615A62DA6287
:102FB0005A63DA635A644CF24F329A602822DA611B
:102FC00040F6A6621A62D96506225A650D49CA689A
:102FD00022F0807222F4E06242F48062CA600A2227
:102FE0001A60044B18627047426003780133037023
:102FF000704700BFE0E1FF1F60E2FF1F0070044068
:103000000080034000B00440034B9B689BB2013337
:103010000B800020704700BF0080034019B9034BAC
:103020001A62002070478220704700BF0080034072
:1030300000BF00BF00BF7047002000BF00BF00BF3F
:1030400000BF00BF00F1010009287FF6F6AF00BF06
:10305000704700BF10B5044603E0FFF7EDFF643C86
:10306000A4B2642CF9D803E0FFF7E2FF0A3CA4B253
:103070000A2CF9D810BD00BF38B504464EF66025BD
:1030800005E02846FFF7E6FFA4F56A44603CAC4241
:10309000F7D8A0B2FFF7DEFF38BD00BF38B5044651
:1030A0004CF2503504E02846FFF7E6FF013CA4B29D
:1030B000002CF8D138BD00BF00210A2200F0D0B8A2
:1030C000034611F8012B03F8012B002AF9D17047B0
:1030D00070B592B10B4605461C7810F8016BB442EE
:1030E00001F1010101D1012A03D128781B78C01A0E
:1030F00070BD013A002CEDD1F7E7104670BDF0B578
:1031000008B9106828B304460F4614F8015B17F895
:10311000016B3EB1B542FAD10BB12046F3E7146022
:103120000370F0BD4DB915602846F0BD17F8016B6E
:10313000AE4207D0002EF9D11C4623460F4613F8A5
:10314000015BF3E715B10021217000E02B4613600D
:10315000F0BDF0BD0123FFF7D2BF000084463F4819
:103160002DE9F04FD0F800800E46344614F8015B8C
:1031700008EB0500407800F0080000F0FF0708B1F8
:103180002646F2E72D2D03D1B41C7578012703E004
:103190002B2D04BF7578B41C33F010000DD1302DE9
:1031A00008D1207800F0DF00582851D1657810232D
:1031B000023402E0002B08BF0A23002F0CBF6FF07F
:1031C000004A4FF0004ABAFBF3F9002603FB19AAA4
:1031D000304608EB050B9BF801B01BF0040F01D043
:1031E000303D0BE01BF0030B1BD0BBF1010F14BFF4
:1031F0004FF0570B4FF0370BCBEB05059D4210DA24
:10320000B6F1FF3F0AD0484506D801D1554503DC49
:1032100003FB0050012601E04FF0FF3614F8015B7C
:10322000D7E7731C0CD1002F4FF022030CBF6FF0B7
:1032300000404FF00040CCF800302AB9BDE8F08FD4
:1032400007B1404242B106B1611E1160BDE8F08F86
:10325000002B08BF0823B0E7BDE8F08F0CE0FF1F8C
:1032600030B51346044A05460C46106829462246E6
:10327000BDE83040FFF772BF70E0FF1F310D0A005C
:10328000300D0A004F4B0D0A00000000756E6B6E8A
:103290006F776E20434D440D0A0000004542427690
:1032A00031335F616E645F61626F76652066726F55
:1032B0006D204652444D5F4567675F426F740D0A4B
:1032C000000000002C00000076000000000000005C
:1032D00000000000000000000000000000000000EE
:1032E000A91F0000454D0000000000000000000084
:1032F000000000000000000000000000311E00007F
:103300005343000000000000000000000000000027
:1033100000000000000000009D1E0000535000004F
:10332000000000000000000000000000000000009D
:1033300000000000C91C0000534D00000000000008
:10334000000000000000000000000000000000007D
:10335000B11A00005345000000000000000000000A
:10336000000000000000000000000000D11F00006D
:1033700054500000000000000000000000000000A9
:103380000000000000000000D11D0000504F0000B0
:10339000000000000000000000000000000000002D
:1033A00000000000D11F00004E4900000000000096
:1033B000000000000000000000000000000000000D
:1033C000711A00004E4400000000000000000000E0
:1033D000000000000000000000000000911A000042
:1033E000534E00000000000000000000000000003C
:1033F0000000000000000000351A0000514E0000DF
:1034000000000000000000000000000000000000BC
:1034100000000000211A0000534C000000000000D2
:10342000000000000000000000000000000000009C
:10343000E5190000514C00000000000000000000F1
:10344000000000000000000000000000D119000092
:1034500051500000000000000000000000000000CB
:10346000000000000000000055190000514200005B
:10347000000000000000000000000000000000004C
:1034800000000000911900000020202020202020B2
:103490002020282828282820202020202020202004
:1034A0002020202020202020208810101010101014
:1034B0001010101010101010100404040404040460
:1034C00004040410101010101010414141414141FA
:1034D00001010101010101010101010101010101DC
:1034E00001010101101010101010424242424242EC
:1034F00002020202020202020202020202020202AC
:103500000202020210101010200000000000000053
:1035100000000000000000000000000000000000AB
:10352000000000000000000000000000000000009B
:10353000000000000000000000000000000000008B
:10354000000000000000000000000000000000007B
:10355000000000000000000000000000000000006B
:10356000000000000000000000000000000000005B
:10357000000000000000000000000000000000004B
:0C358000000000000000000000430000FC
:04358C00DD18000046
:1035900040060000780500000101000088340000AA
:1035A000000000000000000000000000000000001B
:1035B000000000000000000000000000000000000B
:1035C000893500000000000000000000000000003D
:1035D00000000000000000000000000000000000EB
:1035E00000000000000000000000000000000000DB
:1035F00000000000000000000000000000000000CB
:0436000010E0FF1FB8
:103604009035000000E0FF1F740000000436000045
:103614000000002000000000000000000000000086
:0436240000000000A2
:0400000300002225B2
:00000001FF
